{
  "_format": "hh-sol-artifact-1",
  "contractName": "Cards",
  "sourceName": "contracts/Cards.sol",
  "abi": [
    {
      "inputs": [
        {
          "internalType": "string",
          "name": "_uri",
          "type": "string"
        },
        {
          "internalType": "uint256",
          "name": "_count",
          "type": "uint256"
        }
      ],
      "stateMutability": "nonpayable",
      "type": "constructor"
    },
    {
      "anonymous": false,
      "inputs": [
        {
          "indexed": true,
          "internalType": "address",
          "name": "account",
          "type": "address"
        },
        {
          "indexed": true,
          "internalType": "address",
          "name": "operator",
          "type": "address"
        },
        {
          "indexed": false,
          "internalType": "bool",
          "name": "approved",
          "type": "bool"
        }
      ],
      "name": "ApprovalForAll",
      "type": "event"
    },
    {
      "anonymous": false,
      "inputs": [
        {
          "indexed": true,
          "internalType": "address",
          "name": "operator",
          "type": "address"
        },
        {
          "indexed": true,
          "internalType": "address",
          "name": "from",
          "type": "address"
        },
        {
          "indexed": true,
          "internalType": "address",
          "name": "to",
          "type": "address"
        },
        {
          "indexed": false,
          "internalType": "uint256[]",
          "name": "ids",
          "type": "uint256[]"
        },
        {
          "indexed": false,
          "internalType": "uint256[]",
          "name": "values",
          "type": "uint256[]"
        }
      ],
      "name": "TransferBatch",
      "type": "event"
    },
    {
      "anonymous": false,
      "inputs": [
        {
          "indexed": true,
          "internalType": "address",
          "name": "operator",
          "type": "address"
        },
        {
          "indexed": true,
          "internalType": "address",
          "name": "from",
          "type": "address"
        },
        {
          "indexed": true,
          "internalType": "address",
          "name": "to",
          "type": "address"
        },
        {
          "indexed": false,
          "internalType": "uint256",
          "name": "id",
          "type": "uint256"
        },
        {
          "indexed": false,
          "internalType": "uint256",
          "name": "value",
          "type": "uint256"
        }
      ],
      "name": "TransferSingle",
      "type": "event"
    },
    {
      "anonymous": false,
      "inputs": [
        {
          "indexed": false,
          "internalType": "string",
          "name": "value",
          "type": "string"
        },
        {
          "indexed": true,
          "internalType": "uint256",
          "name": "id",
          "type": "uint256"
        }
      ],
      "name": "URI",
      "type": "event"
    },
    {
      "inputs": [
        {
          "internalType": "address",
          "name": "account",
          "type": "address"
        },
        {
          "internalType": "uint256",
          "name": "id",
          "type": "uint256"
        }
      ],
      "name": "balanceOf",
      "outputs": [
        {
          "internalType": "uint256",
          "name": "",
          "type": "uint256"
        }
      ],
      "stateMutability": "view",
      "type": "function"
    },
    {
      "inputs": [
        {
          "internalType": "address[]",
          "name": "accounts",
          "type": "address[]"
        },
        {
          "internalType": "uint256[]",
          "name": "ids",
          "type": "uint256[]"
        }
      ],
      "name": "balanceOfBatch",
      "outputs": [
        {
          "internalType": "uint256[]",
          "name": "",
          "type": "uint256[]"
        }
      ],
      "stateMutability": "view",
      "type": "function"
    },
    {
      "inputs": [
        {
          "internalType": "uint256",
          "name": "_id",
          "type": "uint256"
        }
      ],
      "name": "burn",
      "outputs": [],
      "stateMutability": "nonpayable",
      "type": "function"
    },
    {
      "inputs": [
        {
          "internalType": "uint256[]",
          "name": "_ids",
          "type": "uint256[]"
        },
        {
          "internalType": "uint256[]",
          "name": "_amounts",
          "type": "uint256[]"
        }
      ],
      "name": "burnBatch",
      "outputs": [],
      "stateMutability": "nonpayable",
      "type": "function"
    },
    {
      "inputs": [],
      "name": "count",
      "outputs": [
        {
          "internalType": "uint256",
          "name": "",
          "type": "uint256"
        }
      ],
      "stateMutability": "view",
      "type": "function"
    },
    {
      "inputs": [
        {
          "internalType": "address",
          "name": "account",
          "type": "address"
        },
        {
          "internalType": "address",
          "name": "operator",
          "type": "address"
        }
      ],
      "name": "isApprovedForAll",
      "outputs": [
        {
          "internalType": "bool",
          "name": "",
          "type": "bool"
        }
      ],
      "stateMutability": "view",
      "type": "function"
    },
    {
      "inputs": [
        {
          "internalType": "uint256",
          "name": "_id",
          "type": "uint256"
        }
      ],
      "name": "mint",
      "outputs": [],
      "stateMutability": "nonpayable",
      "type": "function"
    },
    {
      "inputs": [
        {
          "internalType": "uint256[]",
          "name": "_ids",
          "type": "uint256[]"
        },
        {
          "internalType": "uint256[]",
          "name": "_amounts",
          "type": "uint256[]"
        }
      ],
      "name": "mintBatch",
      "outputs": [],
      "stateMutability": "nonpayable",
      "type": "function"
    },
    {
      "inputs": [
        {
          "internalType": "address",
          "name": "from",
          "type": "address"
        },
        {
          "internalType": "address",
          "name": "to",
          "type": "address"
        },
        {
          "internalType": "uint256[]",
          "name": "ids",
          "type": "uint256[]"
        },
        {
          "internalType": "uint256[]",
          "name": "amounts",
          "type": "uint256[]"
        },
        {
          "internalType": "bytes",
          "name": "data",
          "type": "bytes"
        }
      ],
      "name": "safeBatchTransferFrom",
      "outputs": [],
      "stateMutability": "nonpayable",
      "type": "function"
    },
    {
      "inputs": [
        {
          "internalType": "address",
          "name": "from",
          "type": "address"
        },
        {
          "internalType": "address",
          "name": "to",
          "type": "address"
        },
        {
          "internalType": "uint256",
          "name": "id",
          "type": "uint256"
        },
        {
          "internalType": "uint256",
          "name": "amount",
          "type": "uint256"
        },
        {
          "internalType": "bytes",
          "name": "data",
          "type": "bytes"
        }
      ],
      "name": "safeTransferFrom",
      "outputs": [],
      "stateMutability": "nonpayable",
      "type": "function"
    },
    {
      "inputs": [
        {
          "internalType": "address",
          "name": "operator",
          "type": "address"
        },
        {
          "internalType": "bool",
          "name": "approved",
          "type": "bool"
        }
      ],
      "name": "setApprovalForAll",
      "outputs": [],
      "stateMutability": "nonpayable",
      "type": "function"
    },
    {
      "inputs": [
        {
          "internalType": "bytes4",
          "name": "interfaceId",
          "type": "bytes4"
        }
      ],
      "name": "supportsInterface",
      "outputs": [
        {
          "internalType": "bool",
          "name": "",
          "type": "bool"
        }
      ],
      "stateMutability": "view",
      "type": "function"
    },
    {
      "inputs": [
        {
          "internalType": "uint256",
          "name": "",
          "type": "uint256"
        }
      ],
      "name": "uri",
      "outputs": [
        {
          "internalType": "string",
          "name": "",
          "type": "string"
        }
      ],
      "stateMutability": "view",
      "type": "function"
    }
  ],
  "bytecode": "0x60806040523480156200001157600080fd5b506040516200390f3803806200390f8339818101604052810190620000379190620001ae565b8162000049816200005960201b60201c565b508060038190555050506200039c565b80600290805190602001906200007192919062000075565b5050565b8280546200008390620002a7565b90600052602060002090601f016020900481019282620000a75760008555620000f3565b82601f10620000c257805160ff1916838001178555620000f3565b82800160010185558215620000f3579182015b82811115620000f2578251825591602001919060010190620000d5565b5b50905062000102919062000106565b5090565b5b808211156200012157600081600090555060010162000107565b5090565b60006200013c620001368462000231565b62000208565b9050828152602081018484840111156200015557600080fd5b6200016284828562000271565b509392505050565b600082601f8301126200017c57600080fd5b81516200018e84826020860162000125565b91505092915050565b600081519050620001a88162000382565b92915050565b60008060408385031215620001c257600080fd5b600083015167ffffffffffffffff811115620001dd57600080fd5b620001eb858286016200016a565b9250506020620001fe8582860162000197565b9150509250929050565b60006200021462000227565b9050620002228282620002dd565b919050565b6000604051905090565b600067ffffffffffffffff8211156200024f576200024e62000342565b5b6200025a8262000371565b9050602081019050919050565b6000819050919050565b60005b838110156200029157808201518184015260208101905062000274565b83811115620002a1576000848401525b50505050565b60006002820490506001821680620002c057607f821691505b60208210811415620002d757620002d662000313565b5b50919050565b620002e88262000371565b810181811067ffffffffffffffff821117156200030a576200030962000342565b5b80604052505050565b7f4e487b7100000000000000000000000000000000000000000000000000000000600052602260045260246000fd5b7f4e487b7100000000000000000000000000000000000000000000000000000000600052604160045260246000fd5b6000601f19601f8301169050919050565b6200038d8162000267565b81146200039957600080fd5b50565b61356380620003ac6000396000f3fe608060405234801561001057600080fd5b50600436106100ce5760003560e01c80634e1273f41161008c578063a22cb46511610066578063a22cb46514610221578063d351cfdc1461023d578063e985e9c514610259578063f242432a14610289576100ce565b80634e1273f4146101b957806383ca4b6f146101e9578063a0712d6814610205576100ce565b8062fdd58e146100d357806301ffc9a71461010357806306661abd146101335780630e89341c146101515780632eb2c2d61461018157806342966c681461019d575b600080fd5b6100ed60048036038101906100e89190612469565b6102a5565b6040516100fa9190612c27565b60405180910390f35b61011d60048036038101906101189190612586565b61036e565b60405161012a9190612a2a565b60405180910390f35b61013b610450565b6040516101489190612c27565b60405180910390f35b61016b600480360381019061016691906125d8565b610456565b6040516101789190612a45565b60405180910390f35b61019b600480360381019061019691906122df565b6104ea565b005b6101b760048036038101906101b291906125d8565b61058b565b005b6101d360048036038101906101ce91906124a5565b61059a565b6040516101e091906129d1565b60405180910390f35b61020360048036038101906101fe9190612511565b61074b565b005b61021f600480360381019061021a91906125d8565b6107de565b005b61023b6004803603810190610236919061242d565b610841565b005b61025760048036038101906102529190612511565b6109c2565b005b610273600480360381019061026e91906122a3565b610b0a565b6040516102809190612a2a565b60405180910390f35b6102a3600480360381019061029e919061239e565b610b9e565b005b60008073ffffffffffffffffffffffffffffffffffffffff168373ffffffffffffffffffffffffffffffffffffffff161415610316576040517f08c379a000000000000000000000000000000000000000000000000000000000815260040161030d90612aa7565b60405180910390fd5b60008083815260200190815260200160002060008473ffffffffffffffffffffffffffffffffffffffff1673ffffffffffffffffffffffffffffffffffffffff16815260200190815260200160002054905092915050565b60007fd9b67a26000000000000000000000000000000000000000000000000000000007bffffffffffffffffffffffffffffffffffffffffffffffffffffffff1916827bffffffffffffffffffffffffffffffffffffffffffffffffffffffff1916148061043957507f0e89341c000000000000000000000000000000000000000000000000000000007bffffffffffffffffffffffffffffffffffffffffffffffffffffffff1916827bffffffffffffffffffffffffffffffffffffffffffffffffffffffff1916145b80610449575061044882610c3f565b5b9050919050565b60035481565b60606002805461046590612e96565b80601f016020809104026020016040519081016040528092919081815260200182805461049190612e96565b80156104de5780601f106104b3576101008083540402835291602001916104de565b820191906000526020600020905b8154815290600101906020018083116104c157829003601f168201915b50505050509050919050565b6104f2610ca9565b73ffffffffffffffffffffffffffffffffffffffff168573ffffffffffffffffffffffffffffffffffffffff161480610538575061053785610532610ca9565b610b0a565b5b610577576040517f08c379a000000000000000000000000000000000000000000000000000000000815260040161056e90612b27565b60405180910390fd5b6105848585858585610cb1565b5050505050565b61059733826001611011565b50565b606081518351146105e0576040517f08c379a00000000000000000000000000000000000000000000000000000000081526004016105d790612bc7565b60405180910390fd5b6000835167ffffffffffffffff811115610623577f4e487b7100000000000000000000000000000000000000000000000000000000600052604160045260246000fd5b6040519080825280602002602001820160405280156106515781602001602082028036833780820191505090505b50905060005b8451811015610740576106ea85828151811061069c577f4e487b7100000000000000000000000000000000000000000000000000000000600052603260045260246000fd5b60200260200101518583815181106106dd577f4e487b7100000000000000000000000000000000000000000000000000000000600052603260045260246000fd5b60200260200101516102a5565b828281518110610723577f4e487b7100000000000000000000000000000000000000000000000000000000600052603260045260246000fd5b6020026020010181815250508061073990612ef9565b9050610657565b508091505092915050565b6107d833858580806020026020016040519081016040528093929190818152602001838360200280828437600081840152601f19601f82011690508083019250505050505050848480806020026020016040519081016040528093929190818152602001838360200280828437600081840152601f19601f8201169050808301925050505050505061122e565b50505050565b6003548110610822576040517f08c379a000000000000000000000000000000000000000000000000000000000815260040161081990612b87565b60405180910390fd5b61083e338260016040518060200160405280600081525061152b565b50565b8173ffffffffffffffffffffffffffffffffffffffff16610860610ca9565b73ffffffffffffffffffffffffffffffffffffffff1614156108b7576040517f08c379a00000000000000000000000000000000000000000000000000000000081526004016108ae90612ba7565b60405180910390fd5b80600160006108c4610ca9565b73ffffffffffffffffffffffffffffffffffffffff1673ffffffffffffffffffffffffffffffffffffffff16815260200190815260200160002060008473ffffffffffffffffffffffffffffffffffffffff1673ffffffffffffffffffffffffffffffffffffffff16815260200190815260200160002060006101000a81548160ff0219169083151502179055508173ffffffffffffffffffffffffffffffffffffffff16610971610ca9565b73ffffffffffffffffffffffffffffffffffffffff167f17307eab39ab6107e8899845ad3d59bd9653f200f220920489ca2b5937696c31836040516109b69190612a2a565b60405180910390a35050565b60005b84849050811015610a6657600354858583818110610a0c577f4e487b7100000000000000000000000000000000000000000000000000000000600052603260045260246000fd5b9050602002013510610a53576040517f08c379a0000000000000000000000000000000000000000000000000000000008152600401610a4a90612b87565b60405180910390fd5b8080610a5e90612ef9565b9150506109c5565b50610b0433858580806020026020016040519081016040528093929190818152602001838360200280828437600081840152601f19601f82011690508083019250505050505050848480806020026020016040519081016040528093929190818152602001838360200280828437600081840152601f19601f82011690508083019250505050505050604051806020016040528060008152506116c1565b50505050565b6000600160008473ffffffffffffffffffffffffffffffffffffffff1673ffffffffffffffffffffffffffffffffffffffff16815260200190815260200160002060008373ffffffffffffffffffffffffffffffffffffffff1673ffffffffffffffffffffffffffffffffffffffff16815260200190815260200160002060009054906101000a900460ff16905092915050565b610ba6610ca9565b73ffffffffffffffffffffffffffffffffffffffff168573ffffffffffffffffffffffffffffffffffffffff161480610bec5750610beb85610be6610ca9565b610b0a565b5b610c2b576040517f08c379a0000000000000000000000000000000000000000000000000000000008152600401610c2290612ae7565b60405180910390fd5b610c38858585858561192b565b5050505050565b60007f01ffc9a7000000000000000000000000000000000000000000000000000000007bffffffffffffffffffffffffffffffffffffffffffffffffffffffff1916827bffffffffffffffffffffffffffffffffffffffffffffffffffffffff1916149050919050565b600033905090565b8151835114610cf5576040517f08c379a0000000000000000000000000000000000000000000000000000000008152600401610cec90612be7565b60405180910390fd5b600073ffffffffffffffffffffffffffffffffffffffff168473ffffffffffffffffffffffffffffffffffffffff161415610d65576040517f08c379a0000000000000000000000000000000000000000000000000000000008152600401610d5c90612b07565b60405180910390fd5b6000610d6f610ca9565b9050610d7f818787878787611bad565b60005b8451811015610f7c576000858281518110610dc6577f4e487b7100000000000000000000000000000000000000000000000000000000600052603260045260246000fd5b602002602001015190506000858381518110610e0b577f4e487b7100000000000000000000000000000000000000000000000000000000600052603260045260246000fd5b60200260200101519050600080600084815260200190815260200160002060008b73ffffffffffffffffffffffffffffffffffffffff1673ffffffffffffffffffffffffffffffffffffffff16815260200190815260200160002054905081811015610eac576040517f08c379a0000000000000000000000000000000000000000000000000000000008152600401610ea390612b67565b60405180910390fd5b81810360008085815260200190815260200160002060008c73ffffffffffffffffffffffffffffffffffffffff1673ffffffffffffffffffffffffffffffffffffffff168152602001908152602001600020819055508160008085815260200190815260200160002060008b73ffffffffffffffffffffffffffffffffffffffff1673ffffffffffffffffffffffffffffffffffffffff1681526020019081526020016000206000828254610f619190612d8a565b9250508190555050505080610f7590612ef9565b9050610d82565b508473ffffffffffffffffffffffffffffffffffffffff168673ffffffffffffffffffffffffffffffffffffffff168273ffffffffffffffffffffffffffffffffffffffff167f4a39dc06d4c0dbc64b70af90fd698a233a518aa5d07e595d983b8c0526c8f7fb8787604051610ff39291906129f3565b60405180910390a4611009818787878787611bb5565b505050505050565b600073ffffffffffffffffffffffffffffffffffffffff168373ffffffffffffffffffffffffffffffffffffffff161415611081576040517f08c379a000000000000000000000000000000000000000000000000000000000815260040161107890612b47565b60405180910390fd5b600061108b610ca9565b90506110bb8185600061109d87611d9c565b6110a687611d9c565b60405180602001604052806000815250611bad565b600080600085815260200190815260200160002060008673ffffffffffffffffffffffffffffffffffffffff1673ffffffffffffffffffffffffffffffffffffffff16815260200190815260200160002054905082811015611152576040517f08c379a000000000000000000000000000000000000000000000000000000000815260040161114990612ac7565b60405180910390fd5b82810360008086815260200190815260200160002060008773ffffffffffffffffffffffffffffffffffffffff1673ffffffffffffffffffffffffffffffffffffffff16815260200190815260200160002081905550600073ffffffffffffffffffffffffffffffffffffffff168573ffffffffffffffffffffffffffffffffffffffff168373ffffffffffffffffffffffffffffffffffffffff167fc3d58168c5ae7397731d063d5bbf3d657854427343f4c083240f7aacaa2d0f62878760405161121f929190612c42565b60405180910390a45050505050565b600073ffffffffffffffffffffffffffffffffffffffff168373ffffffffffffffffffffffffffffffffffffffff16141561129e576040517f08c379a000000000000000000000000000000000000000000000000000000000815260040161129590612b47565b60405180910390fd5b80518251146112e2576040517f08c379a00000000000000000000000000000000000000000000000000000000081526004016112d990612be7565b60405180910390fd5b60006112ec610ca9565b905061130c81856000868660405180602001604052806000815250611bad565b60005b83518110156114a5576000848281518110611353577f4e487b7100000000000000000000000000000000000000000000000000000000600052603260045260246000fd5b602002602001015190506000848381518110611398577f4e487b7100000000000000000000000000000000000000000000000000000000600052603260045260246000fd5b60200260200101519050600080600084815260200190815260200160002060008973ffffffffffffffffffffffffffffffffffffffff1673ffffffffffffffffffffffffffffffffffffffff16815260200190815260200160002054905081811015611439576040517f08c379a000000000000000000000000000000000000000000000000000000000815260040161143090612ac7565b60405180910390fd5b81810360008085815260200190815260200160002060008a73ffffffffffffffffffffffffffffffffffffffff1673ffffffffffffffffffffffffffffffffffffffff16815260200190815260200160002081905550505050808061149d90612ef9565b91505061130f565b50600073ffffffffffffffffffffffffffffffffffffffff168473ffffffffffffffffffffffffffffffffffffffff168273ffffffffffffffffffffffffffffffffffffffff167f4a39dc06d4c0dbc64b70af90fd698a233a518aa5d07e595d983b8c0526c8f7fb868660405161151d9291906129f3565b60405180910390a450505050565b600073ffffffffffffffffffffffffffffffffffffffff168473ffffffffffffffffffffffffffffffffffffffff16141561159b576040517f08c379a000000000000000000000000000000000000000000000000000000000815260040161159290612c07565b60405180910390fd5b60006115a5610ca9565b90506115c6816000876115b788611d9c565b6115c088611d9c565b87611bad565b8260008086815260200190815260200160002060008773ffffffffffffffffffffffffffffffffffffffff1673ffffffffffffffffffffffffffffffffffffffff16815260200190815260200160002060008282546116259190612d8a565b925050819055508473ffffffffffffffffffffffffffffffffffffffff16600073ffffffffffffffffffffffffffffffffffffffff168273ffffffffffffffffffffffffffffffffffffffff167fc3d58168c5ae7397731d063d5bbf3d657854427343f4c083240f7aacaa2d0f6287876040516116a3929190612c42565b60405180910390a46116ba81600087878787611e62565b5050505050565b600073ffffffffffffffffffffffffffffffffffffffff168473ffffffffffffffffffffffffffffffffffffffff161415611731576040517f08c379a000000000000000000000000000000000000000000000000000000000815260040161172890612c07565b60405180910390fd5b8151835114611775576040517f08c379a000000000000000000000000000000000000000000000000000000000815260040161176c90612be7565b60405180910390fd5b600061177f610ca9565b905061179081600087878787611bad565b60005b8451811015611895578381815181106117d5577f4e487b7100000000000000000000000000000000000000000000000000000000600052603260045260246000fd5b6020026020010151600080878481518110611819577f4e487b7100000000000000000000000000000000000000000000000000000000600052603260045260246000fd5b6020026020010151815260200190815260200160002060008873ffffffffffffffffffffffffffffffffffffffff1673ffffffffffffffffffffffffffffffffffffffff168152602001908152602001600020600082825461187b9190612d8a565b92505081905550808061188d90612ef9565b915050611793565b508473ffffffffffffffffffffffffffffffffffffffff16600073ffffffffffffffffffffffffffffffffffffffff168273ffffffffffffffffffffffffffffffffffffffff167f4a39dc06d4c0dbc64b70af90fd698a233a518aa5d07e595d983b8c0526c8f7fb878760405161190d9291906129f3565b60405180910390a461192481600087878787611bb5565b5050505050565b600073ffffffffffffffffffffffffffffffffffffffff168473ffffffffffffffffffffffffffffffffffffffff16141561199b576040517f08c379a000000000000000000000000000000000000000000000000000000000815260040161199290612b07565b60405180910390fd5b60006119a5610ca9565b90506119c58187876119b688611d9c565b6119bf88611d9c565b87611bad565b600080600086815260200190815260200160002060008873ffffffffffffffffffffffffffffffffffffffff1673ffffffffffffffffffffffffffffffffffffffff16815260200190815260200160002054905083811015611a5c576040517f08c379a0000000000000000000000000000000000000000000000000000000008152600401611a5390612b67565b60405180910390fd5b83810360008087815260200190815260200160002060008973ffffffffffffffffffffffffffffffffffffffff1673ffffffffffffffffffffffffffffffffffffffff168152602001908152602001600020819055508360008087815260200190815260200160002060008873ffffffffffffffffffffffffffffffffffffffff1673ffffffffffffffffffffffffffffffffffffffff1681526020019081526020016000206000828254611b119190612d8a565b925050819055508573ffffffffffffffffffffffffffffffffffffffff168773ffffffffffffffffffffffffffffffffffffffff168373ffffffffffffffffffffffffffffffffffffffff167fc3d58168c5ae7397731d063d5bbf3d657854427343f4c083240f7aacaa2d0f628888604051611b8e929190612c42565b60405180910390a4611ba4828888888888611e62565b50505050505050565b505050505050565b611bd48473ffffffffffffffffffffffffffffffffffffffff16612049565b15611d94578373ffffffffffffffffffffffffffffffffffffffff1663bc197c8187878686866040518663ffffffff1660e01b8152600401611c1a95949392919061290f565b602060405180830381600087803b158015611c3457600080fd5b505af1925050508015611c6557506040513d601f19601f82011682018060405250810190611c6291906125af565b60015b611d0b57611c71612fcf565b806308c379a01415611cce5750611c8661343b565b80611c915750611cd0565b806040517f08c379a0000000000000000000000000000000000000000000000000000000008152600401611cc59190612a45565b60405180910390fd5b505b6040517f08c379a0000000000000000000000000000000000000000000000000000000008152600401611d0290612a67565b60405180910390fd5b63bc197c8160e01b7bffffffffffffffffffffffffffffffffffffffffffffffffffffffff1916817bffffffffffffffffffffffffffffffffffffffffffffffffffffffff191614611d92576040517f08c379a0000000000000000000000000000000000000000000000000000000008152600401611d8990612a87565b60405180910390fd5b505b505050505050565b60606000600167ffffffffffffffff811115611de1577f4e487b7100000000000000000000000000000000000000000000000000000000600052604160045260246000fd5b604051908082528060200260200182016040528015611e0f5781602001602082028036833780820191505090505b5090508281600081518110611e4d577f4e487b7100000000000000000000000000000000000000000000000000000000600052603260045260246000fd5b60200260200101818152505080915050919050565b611e818473ffffffffffffffffffffffffffffffffffffffff16612049565b15612041578373ffffffffffffffffffffffffffffffffffffffff1663f23a6e6187878686866040518663ffffffff1660e01b8152600401611ec7959493929190612977565b602060405180830381600087803b158015611ee157600080fd5b505af1925050508015611f1257506040513d601f19601f82011682018060405250810190611f0f91906125af565b60015b611fb857611f1e612fcf565b806308c379a01415611f7b5750611f3361343b565b80611f3e5750611f7d565b806040517f08c379a0000000000000000000000000000000000000000000000000000000008152600401611f729190612a45565b60405180910390fd5b505b6040517f08c379a0000000000000000000000000000000000000000000000000000000008152600401611faf90612a67565b60405180910390fd5b63f23a6e6160e01b7bffffffffffffffffffffffffffffffffffffffffffffffffffffffff1916817bffffffffffffffffffffffffffffffffffffffffffffffffffffffff19161461203f576040517f08c379a000000000000000000000000000000000000000000000000000000000815260040161203690612a87565b60405180910390fd5b505b505050505050565b600080823b905060008111915050919050565b600061206f61206a84612c90565b612c6b565b9050808382526020820190508285602086028201111561208e57600080fd5b60005b858110156120be57816120a48882612172565b845260208401935060208301925050600181019050612091565b5050509392505050565b60006120db6120d684612cbc565b612c6b565b905080838252602082019050828560208602820111156120fa57600080fd5b60005b8581101561212a5781612110888261228e565b8452602084019350602083019250506001810190506120fd565b5050509392505050565b600061214761214284612ce8565b612c6b565b90508281526020810184848401111561215f57600080fd5b61216a848285612e54565b509392505050565b600081359050612181816134d1565b92915050565b600082601f83011261219857600080fd5b81356121a884826020860161205c565b91505092915050565b60008083601f8401126121c357600080fd5b8235905067ffffffffffffffff8111156121dc57600080fd5b6020830191508360208202830111156121f457600080fd5b9250929050565b600082601f83011261220c57600080fd5b813561221c8482602086016120c8565b91505092915050565b600081359050612234816134e8565b92915050565b600081359050612249816134ff565b92915050565b60008151905061225e816134ff565b92915050565b600082601f83011261227557600080fd5b8135612285848260208601612134565b91505092915050565b60008135905061229d81613516565b92915050565b600080604083850312156122b657600080fd5b60006122c485828601612172565b92505060206122d585828601612172565b9150509250929050565b600080600080600060a086880312156122f757600080fd5b600061230588828901612172565b955050602061231688828901612172565b945050604086013567ffffffffffffffff81111561233357600080fd5b61233f888289016121fb565b935050606086013567ffffffffffffffff81111561235c57600080fd5b612368888289016121fb565b925050608086013567ffffffffffffffff81111561238557600080fd5b61239188828901612264565b9150509295509295909350565b600080600080600060a086880312156123b657600080fd5b60006123c488828901612172565b95505060206123d588828901612172565b94505060406123e68882890161228e565b93505060606123f78882890161228e565b925050608086013567ffffffffffffffff81111561241457600080fd5b61242088828901612264565b9150509295509295909350565b6000806040838503121561244057600080fd5b600061244e85828601612172565b925050602061245f85828601612225565b9150509250929050565b6000806040838503121561247c57600080fd5b600061248a85828601612172565b925050602061249b8582860161228e565b9150509250929050565b600080604083850312156124b857600080fd5b600083013567ffffffffffffffff8111156124d257600080fd5b6124de85828601612187565b925050602083013567ffffffffffffffff8111156124fb57600080fd5b612507858286016121fb565b9150509250929050565b6000806000806040858703121561252757600080fd5b600085013567ffffffffffffffff81111561254157600080fd5b61254d878288016121b1565b9450945050602085013567ffffffffffffffff81111561256c57600080fd5b612578878288016121b1565b925092505092959194509250565b60006020828403121561259857600080fd5b60006125a68482850161223a565b91505092915050565b6000602082840312156125c157600080fd5b60006125cf8482850161224f565b91505092915050565b6000602082840312156125ea57600080fd5b60006125f88482850161228e565b91505092915050565b600061260d83836128f1565b60208301905092915050565b61262281612de0565b82525050565b600061263382612d29565b61263d8185612d57565b935061264883612d19565b8060005b838110156126795781516126608882612601565b975061266b83612d4a565b92505060018101905061264c565b5085935050505092915050565b61268f81612df2565b82525050565b60006126a082612d34565b6126aa8185612d68565b93506126ba818560208601612e63565b6126c381612ff1565b840191505092915050565b60006126d982612d3f565b6126e38185612d79565b93506126f3818560208601612e63565b6126fc81612ff1565b840191505092915050565b6000612714603483612d79565b915061271f8261300f565b604082019050919050565b6000612737602883612d79565b91506127428261305e565b604082019050919050565b600061275a602b83612d79565b9150612765826130ad565b604082019050919050565b600061277d602483612d79565b9150612788826130fc565b604082019050919050565b60006127a0602983612d79565b91506127ab8261314b565b604082019050919050565b60006127c3602583612d79565b91506127ce8261319a565b604082019050919050565b60006127e6603283612d79565b91506127f1826131e9565b604082019050919050565b6000612809602383612d79565b915061281482613238565b604082019050919050565b600061282c602a83612d79565b915061283782613287565b604082019050919050565b600061284f601383612d79565b915061285a826132d6565b602082019050919050565b6000612872602983612d79565b915061287d826132ff565b604082019050919050565b6000612895602983612d79565b91506128a08261334e565b604082019050919050565b60006128b8602883612d79565b91506128c38261339d565b604082019050919050565b60006128db602183612d79565b91506128e6826133ec565b604082019050919050565b6128fa81612e4a565b82525050565b61290981612e4a565b82525050565b600060a0820190506129246000830188612619565b6129316020830187612619565b81810360408301526129438186612628565b905081810360608301526129578185612628565b9050818103608083015261296b8184612695565b90509695505050505050565b600060a08201905061298c6000830188612619565b6129996020830187612619565b6129a66040830186612900565b6129b36060830185612900565b81810360808301526129c58184612695565b90509695505050505050565b600060208201905081810360008301526129eb8184612628565b905092915050565b60006040820190508181036000830152612a0d8185612628565b90508181036020830152612a218184612628565b90509392505050565b6000602082019050612a3f6000830184612686565b92915050565b60006020820190508181036000830152612a5f81846126ce565b905092915050565b60006020820190508181036000830152612a8081612707565b9050919050565b60006020820190508181036000830152612aa08161272a565b9050919050565b60006020820190508181036000830152612ac08161274d565b9050919050565b60006020820190508181036000830152612ae081612770565b9050919050565b60006020820190508181036000830152612b0081612793565b9050919050565b60006020820190508181036000830152612b20816127b6565b9050919050565b60006020820190508181036000830152612b40816127d9565b9050919050565b60006020820190508181036000830152612b60816127fc565b9050919050565b60006020820190508181036000830152612b808161281f565b9050919050565b60006020820190508181036000830152612ba081612842565b9050919050565b60006020820190508181036000830152612bc081612865565b9050919050565b60006020820190508181036000830152612be081612888565b9050919050565b60006020820190508181036000830152612c00816128ab565b9050919050565b60006020820190508181036000830152612c20816128ce565b9050919050565b6000602082019050612c3c6000830184612900565b92915050565b6000604082019050612c576000830185612900565b612c646020830184612900565b9392505050565b6000612c75612c86565b9050612c818282612ec8565b919050565b6000604051905090565b600067ffffffffffffffff821115612cab57612caa612fa0565b5b602082029050602081019050919050565b600067ffffffffffffffff821115612cd757612cd6612fa0565b5b602082029050602081019050919050565b600067ffffffffffffffff821115612d0357612d02612fa0565b5b612d0c82612ff1565b9050602081019050919050565b6000819050602082019050919050565b600081519050919050565b600081519050919050565b600081519050919050565b6000602082019050919050565b600082825260208201905092915050565b600082825260208201905092915050565b600082825260208201905092915050565b6000612d9582612e4a565b9150612da083612e4a565b9250827fffffffffffffffffffffffffffffffffffffffffffffffffffffffffffffffff03821115612dd557612dd4612f42565b5b828201905092915050565b6000612deb82612e2a565b9050919050565b60008115159050919050565b60007fffffffff0000000000000000000000000000000000000000000000000000000082169050919050565b600073ffffffffffffffffffffffffffffffffffffffff82169050919050565b6000819050919050565b82818337600083830152505050565b60005b83811015612e81578082015181840152602081019050612e66565b83811115612e90576000848401525b50505050565b60006002820490506001821680612eae57607f821691505b60208210811415612ec257612ec1612f71565b5b50919050565b612ed182612ff1565b810181811067ffffffffffffffff82111715612ef057612eef612fa0565b5b80604052505050565b6000612f0482612e4a565b91507fffffffffffffffffffffffffffffffffffffffffffffffffffffffffffffffff821415612f3757612f36612f42565b5b600182019050919050565b7f4e487b7100000000000000000000000000000000000000000000000000000000600052601160045260246000fd5b7f4e487b7100000000000000000000000000000000000000000000000000000000600052602260045260246000fd5b7f4e487b7100000000000000000000000000000000000000000000000000000000600052604160045260246000fd5b600060033d1115612fee5760046000803e612feb600051613002565b90505b90565b6000601f19601f8301169050919050565b60008160e01c9050919050565b7f455243313135353a207472616e7366657220746f206e6f6e204552433131353560008201527f526563656976657220696d706c656d656e746572000000000000000000000000602082015250565b7f455243313135353a204552433131353552656365697665722072656a6563746560008201527f6420746f6b656e73000000000000000000000000000000000000000000000000602082015250565b7f455243313135353a2062616c616e636520717565727920666f7220746865207a60008201527f65726f2061646472657373000000000000000000000000000000000000000000602082015250565b7f455243313135353a206275726e20616d6f756e7420657863656564732062616c60008201527f616e636500000000000000000000000000000000000000000000000000000000602082015250565b7f455243313135353a2063616c6c6572206973206e6f74206f776e6572206e6f7260008201527f20617070726f7665640000000000000000000000000000000000000000000000602082015250565b7f455243313135353a207472616e7366657220746f20746865207a65726f20616460008201527f6472657373000000000000000000000000000000000000000000000000000000602082015250565b7f455243313135353a207472616e736665722063616c6c6572206973206e6f742060008201527f6f776e6572206e6f7220617070726f7665640000000000000000000000000000602082015250565b7f455243313135353a206275726e2066726f6d20746865207a65726f206164647260008201527f6573730000000000000000000000000000000000000000000000000000000000602082015250565b7f455243313135353a20696e73756666696369656e742062616c616e636520666f60008201527f72207472616e7366657200000000000000000000000000000000000000000000602082015250565b7f4361726420646f6573206e6f7420657869737400000000000000000000000000600082015250565b7f455243313135353a2073657474696e6720617070726f76616c2073746174757360008201527f20666f722073656c660000000000000000000000000000000000000000000000602082015250565b7f455243313135353a206163636f756e747320616e6420696473206c656e67746860008201527f206d69736d617463680000000000000000000000000000000000000000000000602082015250565b7f455243313135353a2069647320616e6420616d6f756e7473206c656e6774682060008201527f6d69736d61746368000000000000000000000000000000000000000000000000602082015250565b7f455243313135353a206d696e7420746f20746865207a65726f2061646472657360008201527f7300000000000000000000000000000000000000000000000000000000000000602082015250565b600060443d101561344b576134ce565b613453612c86565b60043d036004823e80513d602482011167ffffffffffffffff8211171561347b5750506134ce565b808201805167ffffffffffffffff81111561349957505050506134ce565b80602083010160043d0385018111156134b65750505050506134ce565b6134c582602001850186612ec8565b82955050505050505b90565b6134da81612de0565b81146134e557600080fd5b50565b6134f181612df2565b81146134fc57600080fd5b50565b61350881612dfe565b811461351357600080fd5b50565b61351f81612e4a565b811461352a57600080fd5b5056fea2646970667358221220590c300d379c4ff7eda295bdccb9a51e5df1cf9994e96cf21c8878470442203b64736f6c63430008040033",
  "linkReferences": {},
  "deployedLinkReferences": {}
}